{
  "_format": "hh-sol-artifact-1",
  "contractName": "Raffle",
  "sourceName": "contracts/Lottery.sol",
  "abi": [
    {
      "inputs": [
        {
          "internalType": "address",
          "name": "vrfCoordinatorV2",
          "type": "address"
        },
        {
          "internalType": "uint256",
          "name": "entranceFee",
          "type": "uint256"
        },
        {
          "internalType": "bytes32",
          "name": "gasLane",
          "type": "bytes32"
        },
        {
          "internalType": "uint64",
          "name": "subscriptionId",
          "type": "uint64"
        },
        {
          "internalType": "uint32",
          "name": "callbackGasLimit",
          "type": "uint32"
        }
      ],
      "stateMutability": "nonpayable",
      "type": "constructor"
    },
    {
      "inputs": [
        {
          "internalType": "address",
          "name": "have",
          "type": "address"
        },
        {
          "internalType": "address",
          "name": "want",
          "type": "address"
        }
      ],
      "name": "OnlyCoordinatorCanFulfill",
      "type": "error"
    },
    {
      "inputs": [],
      "name": "Raffle__NotEnoughEthEntered",
      "type": "error"
    },
    {
      "inputs": [],
      "name": "Raffle__RaffleNotOpen",
      "type": "error"
    },
    {
      "inputs": [],
      "name": "Raffle__TransferFailed",
      "type": "error"
    },
    {
      "inputs": [
        {
          "internalType": "uint256",
          "name": "currentBalance",
          "type": "uint256"
        },
        {
          "internalType": "uint256",
          "name": "numPlayers",
          "type": "uint256"
        },
        {
          "internalType": "uint256",
          "name": "raffleState",
          "type": "uint256"
        }
      ],
      "name": "Raffle__UpkeepNotNeeded",
      "type": "error"
    },
    {
      "anonymous": false,
      "inputs": [
        {
          "indexed": true,
          "internalType": "address",
          "name": "player",
          "type": "address"
        }
      ],
      "name": "RaffleEnter",
      "type": "event"
    },
    {
      "anonymous": false,
      "inputs": [
        {
          "indexed": true,
          "internalType": "uint256",
          "name": "requestId",
          "type": "uint256"
        }
      ],
      "name": "RequestedRaffleWinner",
      "type": "event"
    },
    {
      "anonymous": false,
      "inputs": [
        {
          "indexed": true,
          "internalType": "address",
          "name": "player",
          "type": "address"
        }
      ],
      "name": "WinnerPicked",
      "type": "event"
    },
    {
      "inputs": [
        {
          "internalType": "bytes",
          "name": "",
          "type": "bytes"
        }
      ],
      "name": "checkUpkeep",
      "outputs": [
        {
          "internalType": "bool",
          "name": "upkeepNeeded",
          "type": "bool"
        },
        {
          "internalType": "bytes",
          "name": "",
          "type": "bytes"
        }
      ],
      "stateMutability": "view",
      "type": "function"
    },
    {
      "inputs": [],
      "name": "enterRaffle",
      "outputs": [],
      "stateMutability": "payable",
      "type": "function"
    },
    {
      "inputs": [],
      "name": "getEntranceFee",
      "outputs": [
        {
          "internalType": "uint256",
          "name": "",
          "type": "uint256"
        }
      ],
      "stateMutability": "view",
      "type": "function"
    },
    {
      "inputs": [],
      "name": "getLastTimeStamp",
      "outputs": [
        {
          "internalType": "uint256",
          "name": "",
          "type": "uint256"
        }
      ],
      "stateMutability": "view",
      "type": "function"
    },
    {
      "inputs": [],
      "name": "getNumWords",
      "outputs": [
        {
          "internalType": "uint256",
          "name": "",
          "type": "uint256"
        }
      ],
      "stateMutability": "pure",
      "type": "function"
    },
    {
      "inputs": [],
      "name": "getNumberOfPlayers",
      "outputs": [
        {
          "internalType": "uint256",
          "name": "",
          "type": "uint256"
        }
      ],
      "stateMutability": "view",
      "type": "function"
    },
    {
      "inputs": [],
      "name": "getRaffleState",
      "outputs": [
        {
          "internalType": "enum Raffle.RaffleState",
          "name": "",
          "type": "uint8"
        }
      ],
      "stateMutability": "view",
      "type": "function"
    },
    {
      "inputs": [],
      "name": "getRecentWinner",
      "outputs": [
        {
          "internalType": "address",
          "name": "",
          "type": "address"
        }
      ],
      "stateMutability": "view",
      "type": "function"
    },
    {
      "inputs": [],
      "name": "getRequestConfirmations",
      "outputs": [
        {
          "internalType": "uint256",
          "name": "",
          "type": "uint256"
        }
      ],
      "stateMutability": "pure",
      "type": "function"
    },
    {
      "inputs": [
        {
          "internalType": "uint256",
          "name": "index",
          "type": "uint256"
        }
      ],
      "name": "getplayer",
      "outputs": [
        {
          "internalType": "address payable",
          "name": "",
          "type": "address"
        }
      ],
      "stateMutability": "view",
      "type": "function"
    },
    {
      "inputs": [
        {
          "internalType": "bytes",
          "name": "",
          "type": "bytes"
        }
      ],
      "name": "performUpkeep",
      "outputs": [],
      "stateMutability": "nonpayable",
      "type": "function"
    },
    {
      "inputs": [
        {
          "internalType": "uint256",
          "name": "requestId",
          "type": "uint256"
        },
        {
          "internalType": "uint256[]",
          "name": "randomWords",
          "type": "uint256[]"
        }
      ],
      "name": "rawFulfillRandomWords",
      "outputs": [],
      "stateMutability": "nonpayable",
      "type": "function"
    }
  ],
  "bytecode": "0x6101406040526002600360006101000a81548160ff021916908360028111156200002e576200002d6200011d565b5b02179055503480156200004057600080fd5b506040516200167d3803806200167d8339818101604052810190620000669190620002b2565b848073ffffffffffffffffffffffffffffffffffffffff1660808173ffffffffffffffffffffffffffffffffffffffff1681525050508360a081815250508473ffffffffffffffffffffffffffffffffffffffff1660c08173ffffffffffffffffffffffffffffffffffffffff16815250508260e081815250508167ffffffffffffffff166101008167ffffffffffffffff16815250508063ffffffff166101208163ffffffff168152505050505050506200033a565b7f4e487b7100000000000000000000000000000000000000000000000000000000600052602160045260246000fd5b600080fd5b600073ffffffffffffffffffffffffffffffffffffffff82169050919050565b60006200017e8262000151565b9050919050565b620001908162000171565b81146200019c57600080fd5b50565b600081519050620001b08162000185565b92915050565b6000819050919050565b620001cb81620001b6565b8114620001d757600080fd5b50565b600081519050620001eb81620001c0565b92915050565b6000819050919050565b6200020681620001f1565b81146200021257600080fd5b50565b6000815190506200022681620001fb565b92915050565b600067ffffffffffffffff82169050919050565b6200024b816200022c565b81146200025757600080fd5b50565b6000815190506200026b8162000240565b92915050565b600063ffffffff82169050919050565b6200028c8162000271565b81146200029857600080fd5b50565b600081519050620002ac8162000281565b92915050565b600080600080600060a08688031215620002d157620002d06200014c565b5b6000620002e1888289016200019f565b9550506020620002f488828901620001da565b9450506040620003078882890162000215565b93505060606200031a888289016200025a565b92505060806200032d888289016200029b565b9150509295509295909350565b60805160a05160c05160e05161010051610120516112e56200039860003960006106560152600061063301526000610612015260006105d60152600081816102b401526103b10152600081816102f1015261034501526112e56000f3fe6080604052600436106100a75760003560e01c806353a2c19a1161006457806353a2c19a146101895780635f1b0fd8146101b45780636d55b483146101df5780636e04ff0d1461021c578063c1c244e81461025a578063fd6673f514610285576100a7565b806309bc33a7146100ac578063115cbaf5146100d75780631fe543e3146101025780632cfcc5391461012b5780634585e33b14610135578063473f1ddc1461015e575b600080fd5b3480156100b857600080fd5b506100c16102b0565b6040516100ce9190610a33565b60405180910390f35b3480156100e357600080fd5b506100ec6102d8565b6040516100f99190610ac5565b60405180910390f35b34801561010e57600080fd5b5061012960048036038101906101249190610c79565b6102ef565b005b6101336103af565b005b34801561014157600080fd5b5061015c60048036038101906101579190610d30565b61051e565b005b34801561016a57600080fd5b5061017361070f565b6040516101809190610dbe565b60405180910390f35b34801561019557600080fd5b5061019e610739565b6040516101ab9190610a33565b60405180910390f35b3480156101c057600080fd5b506101c9610748565b6040516101d69190610a33565b60405180910390f35b3480156101eb57600080fd5b5061020660048036038101906102019190610dd9565b610755565b6040516102139190610e27565b60405180910390f35b34801561022857600080fd5b50610243600480360381019061023e9190610ef7565b61079c565b604051610251929190610fda565b60405180910390f35b34801561026657600080fd5b5061026f610865565b60405161027c9190610a33565b60405180910390f35b34801561029157600080fd5b5061029a61086f565b6040516102a79190610a33565b60405180910390f35b60007f0000000000000000000000000000000000000000000000000000000000000000905090565b6000600360009054906101000a900460ff16905090565b7f000000000000000000000000000000000000000000000000000000000000000073ffffffffffffffffffffffffffffffffffffffff163373ffffffffffffffffffffffffffffffffffffffff16146103a157337f00000000000000000000000000000000000000000000000000000000000000006040517f1cf993f400000000000000000000000000000000000000000000000000000000815260040161039892919061100a565b60405180910390fd5b6103ab828261087b565b5050565b7f0000000000000000000000000000000000000000000000000000000000000000341015610409576040517f066d781f00000000000000000000000000000000000000000000000000000000815260040160405180910390fd5b6000600281111561041d5761041c610a4e565b5b600360009054906101000a900460ff16600281111561043f5761043e610a4e565b5b14610476576040517fd24a271400000000000000000000000000000000000000000000000000000000815260040160405180910390fd5b6000339080600181540180825580915050600190039060005260206000200160009091909190916101000a81548173ffffffffffffffffffffffffffffffffffffffff021916908373ffffffffffffffffffffffffffffffffffffffff1602179055503373ffffffffffffffffffffffffffffffffffffffff167f0805e1d667bddb8a95f0f09880cf94f403fb596ce79928d9f29b74203ba284d460405160405180910390a2565b60006105386040518060200160405280600081525061079c565b509050806105a75747600080549050600360009054906101000a900460ff16600281111561056957610568610a4e565b5b6040517f584327aa00000000000000000000000000000000000000000000000000000000815260040161059e93929190611033565b60405180910390fd5b6001600360006101000a81548160ff021916908360028111156105cd576105cc610a4e565b5b021790555060007f000000000000000000000000000000000000000000000000000000000000000073ffffffffffffffffffffffffffffffffffffffff16635d3b1d307f00000000000000000000000000000000000000000000000000000000000000007f000000000000000000000000000000000000000000000000000000000000000060037f000000000000000000000000000000000000000000000000000000000000000060016040518663ffffffff1660e01b81526004016106979594939291906110e2565b6020604051808303816000875af11580156106b6573d6000803e3d6000fd5b505050506040513d601f19601f820116820180604052508101906106da919061114a565b9050807fcd6e45c8998311cab7e9d4385596cac867e20a0587194b954fa3a731c93ce78b60405160405180910390a250505050565b6000600160009054906101000a900473ffffffffffffffffffffffffffffffffffffffff16905090565b6000600163ffffffff16905090565b6000600361ffff16905090565b600080828154811061076a57610769611177565b5b9060005260206000200160009054906101000a900473ffffffffffffffffffffffffffffffffffffffff169050919050565b600060606000600360009054906101000a900460ff1660028111156107c4576107c3610a4e565b5b600060028111156107d8576107d7610a4e565b5b1490506000603c600254426107ed91906111d5565b1190506000806000805490501190506000804711905082801561080d5750835b80156108165750805b801561081f5750815b9550856040518060400160405280600381526020017f30783000000000000000000000000000000000000000000000000000000000008152509550955050505050915091565b6000600254905090565b60008080549050905090565b600080805490508260008151811061089657610895611177565b5b60200260200101516108a89190611238565b905060008082815481106108bf576108be611177565b5b9060005260206000200160009054906101000a900473ffffffffffffffffffffffffffffffffffffffff16905080600160006101000a81548173ffffffffffffffffffffffffffffffffffffffff021916908373ffffffffffffffffffffffffffffffffffffffff16021790555060008173ffffffffffffffffffffffffffffffffffffffff16476040516109539061129a565b60006040518083038185875af1925050503d8060008114610990576040519150601f19603f3d011682016040523d82523d6000602084013e610995565b606091505b50509050806109d0576040517fa1d04b3900000000000000000000000000000000000000000000000000000000815260040160405180910390fd5b8173ffffffffffffffffffffffffffffffffffffffff167f5b690ec4a06fe979403046eaeea5b3ce38524683c3001f662c8b5a829632f7df60405160405180910390a25050505050565b6000819050919050565b610a2d81610a1a565b82525050565b6000602082019050610a486000830184610a24565b92915050565b7f4e487b7100000000000000000000000000000000000000000000000000000000600052602160045260246000fd5b60038110610a8e57610a8d610a4e565b5b50565b6000819050610a9f82610a7d565b919050565b6000610aaf82610a91565b9050919050565b610abf81610aa4565b82525050565b6000602082019050610ada6000830184610ab6565b92915050565b6000604051905090565b600080fd5b600080fd5b610afd81610a1a565b8114610b0857600080fd5b50565b600081359050610b1a81610af4565b92915050565b600080fd5b6000601f19601f8301169050919050565b7f4e487b7100000000000000000000000000000000000000000000000000000000600052604160045260246000fd5b610b6e82610b25565b810181811067ffffffffffffffff82111715610b8d57610b8c610b36565b5b80604052505050565b6000610ba0610ae0565b9050610bac8282610b65565b919050565b600067ffffffffffffffff821115610bcc57610bcb610b36565b5b602082029050602081019050919050565b600080fd5b6000610bf5610bf084610bb1565b610b96565b90508083825260208201905060208402830185811115610c1857610c17610bdd565b5b835b81811015610c415780610c2d8882610b0b565b845260208401935050602081019050610c1a565b5050509392505050565b600082601f830112610c6057610c5f610b20565b5b8135610c70848260208601610be2565b91505092915050565b60008060408385031215610c9057610c8f610aea565b5b6000610c9e85828601610b0b565b925050602083013567ffffffffffffffff811115610cbf57610cbe610aef565b5b610ccb85828601610c4b565b9150509250929050565b600080fd5b60008083601f840112610cf057610cef610b20565b5b8235905067ffffffffffffffff811115610d0d57610d0c610cd5565b5b602083019150836001820283011115610d2957610d28610bdd565b5b9250929050565b60008060208385031215610d4757610d46610aea565b5b600083013567ffffffffffffffff811115610d6557610d64610aef565b5b610d7185828601610cda565b92509250509250929050565b600073ffffffffffffffffffffffffffffffffffffffff82169050919050565b6000610da882610d7d565b9050919050565b610db881610d9d565b82525050565b6000602082019050610dd36000830184610daf565b92915050565b600060208284031215610def57610dee610aea565b5b6000610dfd84828501610b0b565b91505092915050565b6000610e1182610d7d565b9050919050565b610e2181610e06565b82525050565b6000602082019050610e3c6000830184610e18565b92915050565b600080fd5b600067ffffffffffffffff821115610e6257610e61610b36565b5b610e6b82610b25565b9050602081019050919050565b82818337600083830152505050565b6000610e9a610e9584610e47565b610b96565b905082815260208101848484011115610eb657610eb5610e42565b5b610ec1848285610e78565b509392505050565b600082601f830112610ede57610edd610b20565b5b8135610eee848260208601610e87565b91505092915050565b600060208284031215610f0d57610f0c610aea565b5b600082013567ffffffffffffffff811115610f2b57610f2a610aef565b5b610f3784828501610ec9565b91505092915050565b60008115159050919050565b610f5581610f40565b82525050565b600081519050919050565b600082825260208201905092915050565b60005b83811015610f95578082015181840152602081019050610f7a565b60008484015250505050565b6000610fac82610f5b565b610fb68185610f66565b9350610fc6818560208601610f77565b610fcf81610b25565b840191505092915050565b6000604082019050610fef6000830185610f4c565b81810360208301526110018184610fa1565b90509392505050565b600060408201905061101f6000830185610daf565b61102c6020830184610daf565b9392505050565b60006060820190506110486000830186610a24565b6110556020830185610a24565b6110626040830184610a24565b949350505050565b6000819050919050565b61107d8161106a565b82525050565b600067ffffffffffffffff82169050919050565b6110a081611083565b82525050565b600061ffff82169050919050565b6110bd816110a6565b82525050565b600063ffffffff82169050919050565b6110dc816110c3565b82525050565b600060a0820190506110f76000830188611074565b6111046020830187611097565b61111160408301866110b4565b61111e60608301856110d3565b61112b60808301846110d3565b9695505050505050565b60008151905061114481610af4565b92915050565b6000602082840312156111605761115f610aea565b5b600061116e84828501611135565b91505092915050565b7f4e487b7100000000000000000000000000000000000000000000000000000000600052603260045260246000fd5b7f4e487b7100000000000000000000000000000000000000000000000000000000600052601160045260246000fd5b60006111e082610a1a565b91506111eb83610a1a565b9250828203905081811115611203576112026111a6565b5b92915050565b7f4e487b7100000000000000000000000000000000000000000000000000000000600052601260045260246000fd5b600061124382610a1a565b915061124e83610a1a565b92508261125e5761125d611209565b5b828206905092915050565b600081905092915050565b50565b6000611284600083611269565b915061128f82611274565b600082019050919050565b60006112a582611277565b915081905091905056fea264697066735822122092043f2574d9fe4e1f8bddae927181bc465b4c13ddb9145bf44a48d5047a089064736f6c63430008120033",
  "linkReferences": {},
  "deployedLinkReferences": {}
}